:200000000C9453000C947B000C947B000C947B000C947B000C947B000C947B000C947B0030
:200020000C947B000C947B000C947B000C947B000C947B000C947B000C947B000C947B00E8
:200040000C946C020C940E030C94DC020C94B6020C947B000C947B000C947B000C947B009F
:200060000C947B000C947B0000000000250028002B0000000000240027002A00040404044D
:200080000404040402020202020203030303030301020408102040800102040810200102F1
:2000A00004081020EB0411241FBECFEFD8E0DEBFCDBF22E0A2E5B1E001C01D92AE31B20742
:2000C000E1F711E0A0E0B1E0ECEBFEE002C005900D92A235B107D9F710E0C3E5D0E004C030
:2000E0002197FE010E945B05C235D107C9F70E9434030C945C070C940000AF92BF92CF9249
:20010000DF92EF92FF920F931F93CF93DF936C017B018B01040F151FEB015E01AE18BF08A0
:20012000C017D10759F06991D601ED91FC910190F081E02DC6010995892B79F7C501DF911D
:20014000CF911F910F91FF90EF90DF90CF90BF90AF900895FC01538D448D252F30E0842F23
:2001600090E0821B930B541710F0CF96089501970895FC01918D828D981761F0A28DAE0F1C
:20018000BF2FB11D5D968C91928D9F5F9F73928F90E008958FEF9FEF08952FB7F89480910A
:2001A000790190917A01A0917B01B0917C012FBF8093850190938601A0938701B093880106
:2001C0008DE791E00E94B90097FF26C02FB7F8948091790190917A01A0917B01B0917C015F
:2001E0002FBF40918501509186016091870170918801841B950BA60BB70B40918101509169
:200200008201609183017091840184179507A607B707B0F28FEF9FEF0895FC01918D828D49
:20022000981731F0828DE80FF11D858D90E008958FEF9FEF0895FC01918D228D892F90E020
:20024000805C9F4F821B91098F73992708958DE791E00E941B0121E0892B09F420E0822F38
:20026000089580E090E0892B29F00E94270181110C9400000895FC01A48DA80FB92FB11D10
:20028000A35ABF4F2C91848D90E001968F739927848FA689B7892C93A089B1898C91837008
:2002A00080648C93938D848D981306C00288F389E02D80818F7D80830895EF92FF920F9325
:2002C0001F93CF93DF93EC0181E0888F9B8D8C8D98131AC0E889F989808185FF15C09FB7CA
:2002E000F894EE89FF896083E889F98980818370806480839FBF81E090E0DF91CF911F9113
:200300000F91FF90EF900895F62E0B8D10E00F5F1F4F0F731127E02E8C8D8E110CC00FB6F9
:2003200007FCFACFE889F989808185FFF5CFCE010E943B01F1CFEB8DEC0FFD2FF11DE35A5E
:20034000FF4FF0829FB7F8940B8FEA89FB8980818062CFCFCF93DF93EC01888D8823B9F0BF
:20036000AA89BB89E889F9898C9185FD03C0808186FD0DC00FB607FCF7CF8C9185FFF2CF70
:20038000808185FFEDCFCE010E943B01E9CFDF91CF910895CF93DF93FC0101900020E9F7E8
:2003A0003197AF01481B590BBC018DE791E00E947D00EC0142E050E068E171E08DE791E07F
:2003C0000E947D008C0F9D1FDF91CF910895AF92BF92CF92DF92EF92FF920F931F93CF930E
:2003E000DF93DC01CD90DC901197C114D10439F01496CD91DC918C017601209761F4DF9175
:20040000CF911F910F91FF90EF90DF90CF90BF90AF90089575015701BFEFAB1ABB0AF70127
:200420008081082E000C990B0E941805892B91F72197CC0DDD1D8881082E000C990B0E94BE
:200440001805892B29F0CE15DF0510F02197F3CFAE014F5F5F4F4E195F09D80115965C9324
:200460004E931497CE14DF0420F4B701C6010E944307D801ED91FC91119714968D919C912B
:20048000E80FF91F1082BBCF0F931F93CF93DF93EC0188819981009759F02A813B81261775
:2004A000370730F081E0DF91CF911F910F9108958B016F5F7F4F0E948606009759F099836E
:2004C00088831B830A832C813D81232B59F7FC011082E8CF80E0E7CF1F920F920FB60F92C9
:2004E00011242F933F938F939F93AF93BF938091790190917A01A0917B01B0917C013091F8
:20050000780123E0230F2D3758F50196A11DB11D209378018093790190937A01A0937B0153
:20052000B0937C018091740190917501A0917601B09177010196A11DB11D809374019093AF
:200540007501A0937601B0937701BF91AF919F918F913F912F910F900FBE0F901F901895E9
:2005600026E8230F0296A11DB11DD2CF1F920F920FB60F9211242F933F934F935F936F931F
:200580007F938F939F93AF93BF93EF93FF938DE791E00E943B01FF91EF91BF91AF919F91BA
:2005A0008F917F916F915F914F913F912F910F900FBE0F901F9018951F920F920FB60F928C
:2005C00011242F938F939F93EF93FF93E0918D01F0918E018081E0919301F091940182FD12
:2005E0001BC09081809196018F5F8F7320919701821741F0E0919601F0E0E358FE4F958FE0
:2006000080939601FF91EF919F918F912F910F900FBE0F901F9018958081F4CF1F920F9293
:200620000FB60F9211248F939F93EF93FF938EB5909173019F3178F4E091730191E09E0FA0
:2006400090937301F0E0EE5AFE4F80838A3019F481E080937201FF91EF919F918F910F90EE
:200660000FBE0F901F901895CF93DF93CDB7DEB728970FB6F894DEBF0FBECDBF789484B57A
:20068000826084BD84B5816084BD85B5826085BD85B5816085BD80916E00816080936E0040
:2006A000109281008091810082608093810080918100816080938100809180008160809383
:2006C00080008091B10084608093B1008091B00081608093B00080917A00846080937A00CF
:2006E00080917A00826080937A0080917A00816080937A0080917A00806880937A00109265
:20070000C100E0918D01F0918E0182E08083E0918901F0918A011082E0918B01F0918C0100
:200720008FEC808310929501E0919101F091920186E08083E0918F01F0919001808180618E
:200740008083E0918F01F0919001808188608083E0918F01F0919001808180688083E09127
:200760008F01F091900180818F7D8083ECE9F0E02491E8E8F0E08491882399F090E0880F7D
:20078000991FFC01EE58FF4FA591B491FC01E859FF4F859194918FB7F894EC91E22BEC93F3
:2007A0008FBF8CB580648CBD8CB580688CBD10927301109272010AE080E0C82E80E0D82E3A
:2007C0008DE791E00E941B01181619060CF063C01A8219821C821B821E821D8270E060E0C9
:2007E000CE0101960E94440229813A8181112FC02115310519F0C9010E94FD051A821982AB
:200800001E821D821C821B820E94CD0097FD27C08A30910521F18F831886ED80FE808FEFF9
:20082000E81AF80AB701CE0101960E944402882359F329813A818D819E81BE01695F7F4FD0
:20084000820F931F0E945507FE82ED82DDCF1E821D826AE171E0C9010E945507D5CFCE01A6
:2008600001960E94E7018D819E81892B71F0E980FA806BE171E0C7010E944C07892B09F02B
:2008800052C082E291E00E94CA0189819A81009711F00E94FD0580917201882309F48FC028
:2008A0001A8219821C821B821E821D8270E060E0CE0101960E94440229813A81811142C0B0
:2008C0002115310519F0C9010E94FD051A8219821E821D821C821B8210E0809173011817E0
:2008E000C8F5E12FF0E0EE5AFE4F80818F831886ED80FE808FEFE81AF80AB701CE0101968A
:200900000E944402882369F029813A818D819E81BE01695F7F4F820F931F0E945507FE8243
:20092000ED821F5FDACF64E371E0C7010E944C07892B09F0AACF10927301109272018DE30B
:2009400091E0A1CF1E821D826AE171E0C9010E945507C2CFCE0101960E94E7018D819E8165
:20096000892BC1F06BE171E089819A810E944C07892B81F4E5E4F1E081918EBD0DB407FE75
:20098000FDCF81E0E035F807B9F70EBD0DB407FEFDCF8EB510927301109272018DE791E0B6
:2009A0000E941B01892B29F08DE791E00E94B900F5CF89819A81009711F00E94FD05C11472
:2009C000D10409F4FDCE0E942701882309F4F8CE0E940000F5CEEDE7F1E01382128288EE99
:2009E00093E0A0E0B0E084839583A683B7838AE091E09183808385EC90E09587848784EC88
:200A000090E09787868780EC90E0918B808B81EC90E0938B828B82EC90E0958B848B86ECB1
:200A200090E0978B868B118E128E138E148E089591110C942105803219F089508550C8F764
:200A400008959927882708952F923F924F925F926F927F928F929F92AF92BF92CF92DF92C1
:200A6000EF92FF920F931F93CF93DF93CDB7DEB7CA1BDB0B0FB6F894DEBF0FBECDBF099474
:200A80002A88398848885F846E847D848C849B84AA84B984C884DF80EE80FD800C811B81E4
:200AA000AA81B981CE0FD11D0FB6F894DEBF0FBECDBFED010895EE0FFF1F0590F491E02DF2
:200AC00009940F931F93CF93DF938230910510F482E090E0E0911C02F0911D0230E020E0F4
:200AE000B0E0A0E0309799F42115310509F44AC0281B390B24303105D8F58A819B816115A4
:200B0000710589F1FB0193838283FE0111C0408151810281138148175907E0F04817590706
:200B200099F4109761F012960C93129713961C933296CF01DF91CF911F910F910895009300
:200B40001C0210931D02F4CF2115310551F04217530738F0A901DB019A01BD01DF01F801B2
:200B6000C1CFEF01F9CF90931D0280931C02CDCFFE01E20FF31F819391932250310939837C
:200B80002883D7CF20911A0230911B02232B41F4209102013091030130931B0220931A02AE
:200BA00020910001309101012115310541F42DB73EB74091040150910501241B350BE09199
:200BC0001A02F0911B02E217F307A0F42E1B3F0B2817390778F0AC014E5F5F4F24173507DB
:200BE00048F04E0F5F1F50931B0240931A02819391939FCFF0E0E0E09CCFCF93DF930097E7
:200C0000E9F0FC01329713821282A0911C02B0911D02ED0130E020E01097A1F420813181D0
:200C2000820F931F20911A0230911B022817390709F061C0F0931B02E0931A02DF91CF912E
:200C40000895EA01CE17DF07E8F54A815B819E0141155105B1F7E901FB83EA834991599131
:200C6000C40FD51FEC17FD0761F4808191810296840F951FE90199838883828193819B8319
:200C80008A83F0E0E0E012968D919C9113970097B9F52D913C911197CD010296820F931FF9
:200CA00020911A0230911B022817390739F6309751F510921D0210921C02B0931B02A093BA
:200CC0001A02BCCFD383C28340815181840F951FC817D90761F44E5F5F4F88819981480F0F
:200CE000591F518340838A819B81938382832115310509F0B0CFF0931D02E0931C029ECF1F
:200D0000FD01DC01C0CF13821282D7CFB0E0A0E0ECE8F6E00C9426058C01009751F4CB01E0
:200D20000E9461058C01C801CDB7DEB7E0E10C944205FC01E60FF71F9C0122503109E2174A
:200D4000F30708F49DC0D901CD91DC911197C617D70798F0C530D10530F3CE0104978617BB
:200D6000970708F3C61BD70B2297C193D1936D937C93CF010E94FD05D6CF5B01AC1ABD0A95
:200D80004C018C0E9D1EA0911C02B0911D02512C412CF12CE12C109731F580911A029091D3
:200DA0001B028815990509F05CC04616570608F058C08091000190910101009741F48DB7B8
:200DC0009EB74091040150910501841B950BE817F90708F055C0F0931B02E0931A02F9018D
:200DE00071836083A0CF8D919C91119712966C90129713967C901397A815B90559F56C01D8
:200E000042E0C40ED11CCA14DB0420F1AC014A195B09DA011296159780F062827382518363
:200E20004083D9016D937C93E114F10471F0D7011396FC93EE93129776CF22968C0F9D1F2D
:200E4000F90191838083F301EFCFF0931D02E0931C0269CF4816590608F42C017D01D3012C
:200E60009ACFCB010E9461057C01009749F0AE01B8010E944307C8010E94FD05870153CF7D
:200E800010E000E050CFFB01DC0102C001900D9241505040D8F70895FB01DC018D91019083
:200EA00080190110D9F3990B0895FB01DC0101900D920020E1F70895F894FFCF00001E0263
:200EC0008000000000005D017D00AA00AA011B01B9000D010D0A004C495354454E00415404
:200EE0004D4547415F333238505F414C495645005350495F5445535400434F4D5F53455407
:200F0000004E414E4F5F5350495F4F4B0000983ED4F3869577956795B795F795E7959F5F4F
:200F2000C1F7FE2B880F911D9695879597F908950E94B106880B990B0895A1E21A2EAA1B5A
:200F4000BB1BFD010DC0AA1FBB1FEE1FFF1FA217B307E407F50720F0A21BB30BE40BF50B4E
:200F6000661F771F881F991F1A9469F760957095809590959B01AC01BD01CF010895EE0F44
:200F8000FF1F0590F491E02D0994F894FFCF000000007401D4000101C1013201100124019F
:200FA00020006E616E00696E66006F7666000D0A0000FFFFFFFFFFFFFFFFFFFFFFFFFFFF43
:200FC000FFFFFFFFFFFFFFFFFFFFFFFFFFFFFFFFFFFFFFFFFFFFFFFFFFFFFFFFFFFFFFFF31
:200FE000FFFFFFFFFFFFFFFFFFFFFFFFFFFFFFFFFFFFFFFFFFFFFFFFFFFFFFFFFFFFFFFF11
:2010000082E290E09093D8018093D701C501B401CDB7DEB7ECE00C94820991110C9401093E
:20102000803219F089508550C8F70895FB01DC014150504088F08D9181341CF08B350CF4DA
:20104000805E659161341CF06B350CF4605E861B611171F3990B0895881BFCCF0E9470087D
:2010600008F481E00895E89409C097FB3EF490958095709561957F4F8F4F9F4F9923A9F049
:20108000F92F96E9BB279395F695879577956795B795F111F8CFFAF4BB0F11F460FF1BC0E4
:2010A0006F5F7F4F8F4F9F4F16C0882311F096E911C0772321F09EE8872F762F05C066231C
:2010C00071F096E8862F70E060E02AF09A95660F771F881FDAF7880F9695879597F9089515
:2010E000990F0008550FAA0BE0E8FEEF16161706E807F907C0F012161306E407F50798F0DA
:20110000621B730B840B950B39F40A2661F0232B242B252B21F408950A2609F4A140A6950F
:201120008FEF811D811D08950E94A7080C941B090E940D0938F00E94140920F0952311F0DB
:201140000C9404090C940A0911240C944F090E942C0970F3959FC1F3950F50E0551F629F97
:20116000F001729FBB27F00DB11D639FAA27F00DB11DAA1F649F6627B00DA11D661F829FA8
:201180002227B00DA11D621F739FB00DA11D621F839FA00D611D221F749F3327A00D611DD6
:2011A000231F849F600D211D822F762F6A2F11249F5750409AF0F1F088234AF0EE0FFF1F0A
:2011C000BB1F661F771F881F91505040A9F79E3F510580F00C9404090C944F095F3FE4F3A5
:2011E000983ED4F3869577956795B795F795E7959F5FC1F7FE2B880F911D9695879597F9E0
:20120000089599278827089597F99F6780E870E060E008959FEF80EC089500240A94161675
:20122000170618060906089500240A9412161306140605060895092E0394000C11F4882378
:2012400052F0BB0F40F4BF2B11F460FF04C06F5F7F4F8F4F9F4F089557FD9058440F551F34
:2012600059F05F3F71F04795880F97FB991F61F09F3F79F087950895121613061406551F49
:20128000F2CF4695F1DF08C0161617061806991FF1CF86957105610508940895E894BB27AD
:2012A00066277727CB0197F908950E949709A59F900DB49F900DA49F800D911D11240895A7
:2012C0002F923F924F925F926F927F928F929F92AF92BF92CF92DF92EF92FF920F931F937C
:2012E000CF93DF93CDB7DEB7CA1BDB0B0FB6F894DEBF0FBECDBF09942A88398848885F842C
:201300006E847D848C849B84AA84B984C884DF80EE80FD800C811B81AA81B981CE0FD11D51
:201320000FB6F894DEBF0FBECDBFED010895A29FB001B39FC001A39F700D811D1124911D96
:20134000B29F700D811D1124911D08955058BB27AA270E94BE090C941B090E940D0938F039
:201360000E94140920F039F49F3F19F426F40C940A090EF4E095E7FB0C940409E92F0E94F9
:201380002C0958F3BA17620773078407950720F079F4A6F50C944E090EF4E0950B2EBA2F4A
:2013A000A02D0B01B90190010C01CA01A0011124FF27591B99F0593F50F4503E68F11A1645
:2013C000F040A22F232F342F4427585FF3CF469537952795A795F0405395C9F77EF41F1655
:2013E000BA0B620B730B840BBAF09150A1F0FF0FBB1F661F771F881FC2F70EC0BA0F621F17
:20140000731F841F48F4879577956795B795F7959E3F08F0B0CF9395880F08F09927EE0F97
:201420009795879508950E94270A0C941B090E94140958F00E940D0940F029F45F3F29F06D
:201440000C94040951110C944F090C940A090E942C0968F39923B1F3552391F3951B550B34
:20146000BB27AA2762177307840738F09F5F5F4F220F331F441FAA1FA9F335D00E2E3AF0B1
:20148000E0E832D091505040E695001CCAF72BD0FE2F29D0660F771F881FBB1F2617370791
:2014A0004807AB07B0E809F0BB0B802DBF01FF2793585F4F3AF09E3F510578F00C94040936
:2014C0000C944F095F3FE4F3983ED4F3869577956795B795F7959F5FC9F7880F911D9695D9
:2014E000879597F90895E1E0660F771F881FBB1F621773078407BA0720F0621B730B840B7D
:20150000BA0BEE1F88F7E09508950E94340988F09F5798F0B92F9927B751B0F0E1F0660FFD
:20152000771F881F991F1AF0BA95C9F714C0B13091F00E944E09B1E008950C944E09672FB3
:20154000782F8827B85F39F0B93FCCF3869577956795B395D9F73EF490958095709561959C
:201560007F4F8F4F9F4F08950E94700808F48FEF08950E947008880B990B0895A1E21A2E4A
:20158000AA1BBB1BFD010DC0AA1FBB1FEE1FFF1FA217B307E407F50720F0A21BB30BE40B43
:2015A000F50B661F771F881F991F1A9469F760957095809590959B01AC01BD01CF010895FB
:2015C000EE0FFF1F0590F491E02D09940F931F93CF93DF938230910510F482E090E0E09175
:2015E000DB01F091DC0130E020E0B0E0A0E0309799F42115310509F44AC0281B390B2430EF
:201600003105D8F58A819B816115710589F1FB0193838283FE0111C04081518102811381A9
:2016200048175907E0F04817590799F4109761F012960C93129713961C933296CF01DF9187
:20164000CF911F910F9108950093DB011093DC01F4CF2115310551F04217530738F0A90159
:20166000DB019A01BD01DF01F801C1CFEF01F9CF9093DC018093DB01CDCFFE01E20FF31F87
:20168000819391932250310939832883D7CF2091D9013091DA01232B41F42091020130913A
:2016A00003013093DA012093D90120910001309101012115310541F42DB73EB74091040136
:2016C00050910501241B350BE091D901F091DA01E217F307A0F42E1B3F0B2817390778F0FC
:2016E000AC014E5F5F4F2417350748F04E0F5F1F5093DA014093D901819391939FCFF0E077
:20170000E0E09CCFCF93DF930097E9F0FC01329713821282A091DB01B091DC01ED0130E042
:2017200020E01097A1F420813181820F931F2091D9013091DA012817390709F061C0F09394
:20174000DA01E093D901DF91CF910895EA01CE17DF07E8F54A815B819E0141155105B1F7C7
:20176000E901FB83EA8349915991C40FD51FEC17FD0761F4808191810296840F951FE901D1
:2017800099838883828193819B838A83F0E0E0E012968D919C9113970097B9F52D913C91E3
:2017A0001197CD010296820F931F2091D9013091DA012817390739F6309751F51092DC0177
:2017C0001092DB01B093DA01A093D901BCCFD383C28340815181840F951FC817D90761F44C
:2017E0004E5F5F4F88819981480F591F518340838A819B81938382832115310509F0B0CFDF
:20180000F093DC01E093DB019ECFFD01DC01C0CF13821282D7CFB0E0A0E0E1E1FCE00C9425
:2018200062098C01009751F4CB010E94E60A8C01C801CDB7DEB7E0E10C947E09FC01E60F2D
:20184000F71F9C0122503109E217F30708F49DC0D901CD91DC911197C617D70798F0C53058
:20186000D10530F3CE0104978617970708F3C61BD70B2297C193D1936D937C93CF010E941A
:20188000820BD6CF5B01AC1ABD0A4C018C0E9D1EA091DB01B091DC01512C412CF12CE12C4C
:2018A000109731F58091D9019091DA018815990509F05CC04616570608F058C08091000149
:2018C00090910101009741F48DB79EB74091040150910501841B950BE817F90708F055C078
:2018E000F093DA01E093D901F90171836083A0CF8D919C91119712966C90129713967C9008
:201900001397A815B90559F56C0142E0C40ED11CCA14DB0420F1AC014A195B09DA01129641
:20192000159780F06282738251834083D9016D937C93E114F10471F0D7011396FC93EE9356
:20194000129776CF22968C0F9D1FF90191838083F301EFCFF093DC01E093DB0169CF481682
:20196000590608F42C017D01D3019ACFCB010E94E60A7C01009749F0AE01B8010E94C80C9B
:20198000C8010E94820B870153CF10E000E050CFFB01DC0102C001900D9241505040D8F7FB
:2019A0000895FB01DC0101900D920020E1F7089510E0C0E8D0E004C0FE010E94E00A21969E
:2019C000C138D107C9F7F894FFCF0000DD018000000000008901F3002001D60151012F01C7
:2019E00043016E616E00696E66006F76660020000D0A0000FFFFFFFFFFFFFFFFFFFFFFFFB3
:201A0000FFFFFFFFFFFFFFFFFFFFFFFFFFFFFFFFFFFFFFFFFFFFFFFFFFFFFFFFFFFFFFFFE6
:201A2000FFFFFFFFFFFFFFFFFFFFFFFFFFFFFFFFFFFFFFFFFFFFFFFFFFFFFFFFFFFFFFFFC6
:201A4000FFFFFFFFFFFFFFFFFFFFFFFFFFFFFFFFFFFFFFFFFFFFFFFFFFFFFFFFFFFFFFFFA6
:201A6000FFFFFFFFFFFFFFFFFFFFFFFFFFFFFFFFFFFFFFFFFFFFFFFFFFFFFFFFFFFFFFFF86
:207E0000112484B714BE81FFF0D085E08093810082E08093C00088E18093C10086E08093FC
:207E2000C20080E18093C4008EE0C9D0259A86E020E33CEF91E0309385002093840096BBAD
:207E4000B09BFECF1D9AA8958150A9F7CC24DD2488248394B5E0AB2EA1E19A2EF3E0BF2E79
:207E6000A2D0813461F49FD0082FAFD0023811F0013811F484E001C083E08DD089C0823404
:207E800011F484E103C0853419F485E0A6D080C0853579F488D0E82EFF2485D0082F10E0A0
:207EA000102F00270E291F29000F111F8ED068016FC0863521F484E090D080E0DECF84364D
:207EC00009F040C070D06FD0082F6DD080E0C81680E7D80618F4F601B7BEE895C0E0D1E0ED
:207EE00062D089930C17E1F7F0E0CF16F0E7DF0618F0F601B7BEE89568D007B600FCFDCF1A
:207F0000A601A0E0B1E02C9130E011968C91119790E0982F8827822B932B1296FA010C016F
:207F200087BEE89511244E5F5F4FF1E0A038BF0751F7F601A7BEE89507B600FCFDCF97BE85
:207F4000E89526C08437B1F42ED02DD0F82E2BD03CD0F601EF2C8F010F5F1F4F84911BD0B8
:207F6000EA94F801C1F70894C11CD11CFA94CF0CD11C0EC0853739F428D08EE10CD085E9AE
:207F80000AD08FE07ACF813511F488E018D01DD080E101D065CF982F8091C00085FFFCCF0A
:207FA0009093C60008958091C00087FFFCCF8091C00084FD01C0A8958091C6000895E0E68F
:207FC000F0E098E1908380830895EDDF803219F088E0F5DFFFCF84E1DECF1F93182FE3DF47
:207FE0001150E9F7F2DF1F91089580E0E8DFEE27FF270994FFFFFFFFFFFFFFFFFFFF040425
:00000001FF
